{
  "_format": "hh-sol-artifact-1",
  "contractName": "WalletBinding",
  "sourceName": "contracts/bindWallet.sol",
  "abi": [
    {
      "inputs": [],
      "stateMutability": "nonpayable",
      "type": "constructor"
    },
    {
      "inputs": [
        {
          "internalType": "address",
          "name": "owner",
          "type": "address"
        }
      ],
      "name": "OwnableInvalidOwner",
      "type": "error"
    },
    {
      "inputs": [
        {
          "internalType": "address",
          "name": "account",
          "type": "address"
        }
      ],
      "name": "OwnableUnauthorizedAccount",
      "type": "error"
    },
    {
      "anonymous": false,
      "inputs": [
        {
          "indexed": true,
          "internalType": "address",
          "name": "previousOwner",
          "type": "address"
        },
        {
          "indexed": true,
          "internalType": "address",
          "name": "newOwner",
          "type": "address"
        }
      ],
      "name": "OwnershipTransferred",
      "type": "event"
    },
    {
      "anonymous": false,
      "inputs": [
        {
          "indexed": true,
          "internalType": "address",
          "name": "wallet",
          "type": "address"
        },
        {
          "indexed": false,
          "internalType": "string",
          "name": "user_id",
          "type": "string"
        }
      ],
      "name": "WalletCreated",
      "type": "event"
    },
    {
      "anonymous": false,
      "inputs": [
        {
          "indexed": true,
          "internalType": "address",
          "name": "wallet",
          "type": "address"
        },
        {
          "indexed": false,
          "internalType": "string",
          "name": "user_id",
          "type": "string"
        }
      ],
      "name": "WalletDeleted",
      "type": "event"
    },
    {
      "inputs": [
        {
          "internalType": "string",
          "name": "user_id",
          "type": "string"
        },
        {
          "internalType": "address",
          "name": "wallet",
          "type": "address"
        }
      ],
      "name": "bindUserToWallet",
      "outputs": [],
      "stateMutability": "nonpayable",
      "type": "function"
    },
    {
      "inputs": [
        {
          "internalType": "string",
          "name": "user_id",
          "type": "string"
        }
      ],
      "name": "deleteWalletBinding",
      "outputs": [],
      "stateMutability": "nonpayable",
      "type": "function"
    },
    {
      "inputs": [
        {
          "internalType": "string",
          "name": "user_id",
          "type": "string"
        }
      ],
      "name": "getUserAddress",
      "outputs": [
        {
          "internalType": "address",
          "name": "",
          "type": "address"
        }
      ],
      "stateMutability": "view",
      "type": "function"
    },
    {
      "inputs": [
        {
          "internalType": "string",
          "name": "user_id",
          "type": "string"
        }
      ],
      "name": "onchainUserExists",
      "outputs": [
        {
          "internalType": "bool",
          "name": "",
          "type": "bool"
        }
      ],
      "stateMutability": "view",
      "type": "function"
    },
    {
      "inputs": [],
      "name": "owner",
      "outputs": [
        {
          "internalType": "address",
          "name": "",
          "type": "address"
        }
      ],
      "stateMutability": "view",
      "type": "function"
    },
    {
      "inputs": [],
      "name": "renounceOwnership",
      "outputs": [],
      "stateMutability": "nonpayable",
      "type": "function"
    },
    {
      "inputs": [
        {
          "internalType": "address",
          "name": "newOwner",
          "type": "address"
        }
      ],
      "name": "transferOwnership",
      "outputs": [],
      "stateMutability": "nonpayable",
      "type": "function"
    },
    {
      "inputs": [
        {
          "internalType": "string",
          "name": "",
          "type": "string"
        }
      ],
      "name": "userExists",
      "outputs": [
        {
          "internalType": "bool",
          "name": "",
          "type": "bool"
        }
      ],
      "stateMutability": "view",
      "type": "function"
    },
    {
      "inputs": [
        {
          "internalType": "string",
          "name": "",
          "type": "string"
        }
      ],
      "name": "userIdToWallet",
      "outputs": [
        {
          "internalType": "address",
          "name": "",
          "type": "address"
        }
      ],
      "stateMutability": "view",
      "type": "function"
    }
  ],
  "bytecode": "0x608060405234801561001057600080fd5b5033600073ffffffffffffffffffffffffffffffffffffffff168173ffffffffffffffffffffffffffffffffffffffff16036100845760006040517f1e4fbdf700000000000000000000000000000000000000000000000000000000815260040161007b919061019e565b60405180910390fd5b6100938161009960201b60201c565b506101b9565b60008060009054906101000a900473ffffffffffffffffffffffffffffffffffffffff169050816000806101000a81548173ffffffffffffffffffffffffffffffffffffffff021916908373ffffffffffffffffffffffffffffffffffffffff1602179055508173ffffffffffffffffffffffffffffffffffffffff168173ffffffffffffffffffffffffffffffffffffffff167f8be0079c531659141344cd1fd0a4f28419497f9722a3daafe3b4186f6b6457e060405160405180910390a35050565b600073ffffffffffffffffffffffffffffffffffffffff82169050919050565b60006101888261015d565b9050919050565b6101988161017d565b82525050565b60006020820190506101b3600083018461018f565b92915050565b611020806101c86000396000f3fe608060405234801561001057600080fd5b50600436106100935760003560e01c806384adbfcf1161006657806384adbfcf146101325780638da5cb5b1461014e578063f2fde38b1461016c578063f7c54da414610188578063fddc968e146101a457610093565b80634985e85c14610098578063715018a6146100c85780637acb9be4146100d25780637ae24c8714610102575b600080fd5b6100b260048036038101906100ad9190610b24565b6101d4565b6040516100bf9190610bae565b60405180910390f35b6100d061021c565b005b6100ec60048036038101906100e79190610b24565b610230565b6040516100f99190610be4565b60405180910390f35b61011c60048036038101906101179190610b24565b610265565b6040516101299190610bae565b60405180910390f35b61014c60048036038101906101479190610b24565b6102ae565b005b6101566104ef565b6040516101639190610bae565b60405180910390f35b61018660048036038101906101819190610c2b565b610518565b005b6101a2600480360381019061019d9190610c58565b61059e565b005b6101be60048036038101906101b99190610b24565b610841565b6040516101cb9190610be4565b60405180910390f35b60006001826040516101e69190610d25565b908152602001604051809103902060009054906101000a900473ffffffffffffffffffffffffffffffffffffffff169050919050565b610224610877565b61022e60006108fe565b565b60006002826040516102429190610d25565b908152602001604051809103902060009054906101000a900460ff169050919050565b6001818051602081018201805184825260208301602085012081835280955050505050506000915054906101000a900473ffffffffffffffffffffffffffffffffffffffff1681565b6002816040516102be9190610d25565b908152602001604051809103902060009054906101000a900460ff16610319576040517f08c379a000000000000000000000000000000000000000000000000000000000815260040161031090610d99565b60405180910390fd5b3373ffffffffffffffffffffffffffffffffffffffff166001826040516103409190610d25565b908152602001604051809103902060009054906101000a900473ffffffffffffffffffffffffffffffffffffffff1673ffffffffffffffffffffffffffffffffffffffff16146103c5576040517f08c379a00000000000000000000000000000000000000000000000000000000081526004016103bc90610e2b565b60405180910390fd5b60006001826040516103d79190610d25565b908152602001604051809103902060009054906101000a900473ffffffffffffffffffffffffffffffffffffffff169050600060018360405161041a9190610d25565b908152602001604051809103902060006101000a81548173ffffffffffffffffffffffffffffffffffffffff021916908373ffffffffffffffffffffffffffffffffffffffff16021790555060006002836040516104789190610d25565b908152602001604051809103902060006101000a81548160ff0219169083151502179055508073ffffffffffffffffffffffffffffffffffffffff167f569f0a2e9669ff65bb883f6aa3190d530843e30d6e4ba8118147b40a456ee097836040516104e39190610e84565b60405180910390a25050565b60008060009054906101000a900473ffffffffffffffffffffffffffffffffffffffff16905090565b610520610877565b600073ffffffffffffffffffffffffffffffffffffffff168173ffffffffffffffffffffffffffffffffffffffff16036105925760006040517f1e4fbdf70000000000000000000000000000000000000000000000000000000081526004016105899190610bae565b60405180910390fd5b61059b816108fe565b50565b600073ffffffffffffffffffffffffffffffffffffffff168173ffffffffffffffffffffffffffffffffffffffff160361060d576040517f08c379a000000000000000000000000000000000000000000000000000000000815260040161060490610ef2565b60405180910390fd5b3373ffffffffffffffffffffffffffffffffffffffff168173ffffffffffffffffffffffffffffffffffffffff161461067b576040517f08c379a000000000000000000000000000000000000000000000000000000000815260040161067290610f5e565b60405180910390fd5b8073ffffffffffffffffffffffffffffffffffffffff166001836040516106a29190610d25565b908152602001604051809103902060009054906101000a900473ffffffffffffffffffffffffffffffffffffffff1673ffffffffffffffffffffffffffffffffffffffff16148061071b57506002826040516106fe9190610d25565b908152602001604051809103902060009054906101000a900460ff165b1561075b576040517f08c379a000000000000000000000000000000000000000000000000000000000815260040161075290610fca565b60405180910390fd5b8060018360405161076c9190610d25565b908152602001604051809103902060006101000a81548173ffffffffffffffffffffffffffffffffffffffff021916908373ffffffffffffffffffffffffffffffffffffffff16021790555060016002836040516107ca9190610d25565b908152602001604051809103902060006101000a81548160ff0219169083151502179055508073ffffffffffffffffffffffffffffffffffffffff167f03768bb3a703b01cc4c51e2f46596839eef3bdfc4d1dc810c789e342d2f405a7836040516108359190610e84565b60405180910390a25050565b6002818051602081018201805184825260208301602085012081835280955050505050506000915054906101000a900460ff1681565b61087f6109c2565b73ffffffffffffffffffffffffffffffffffffffff1661089d6104ef565b73ffffffffffffffffffffffffffffffffffffffff16146108fc576108c06109c2565b6040517f118cdaa70000000000000000000000000000000000000000000000000000000081526004016108f39190610bae565b60405180910390fd5b565b60008060009054906101000a900473ffffffffffffffffffffffffffffffffffffffff169050816000806101000a81548173ffffffffffffffffffffffffffffffffffffffff021916908373ffffffffffffffffffffffffffffffffffffffff1602179055508173ffffffffffffffffffffffffffffffffffffffff168173ffffffffffffffffffffffffffffffffffffffff167f8be0079c531659141344cd1fd0a4f28419497f9722a3daafe3b4186f6b6457e060405160405180910390a35050565b600033905090565b6000604051905090565b600080fd5b600080fd5b600080fd5b600080fd5b6000601f19601f8301169050919050565b7f4e487b7100000000000000000000000000000000000000000000000000000000600052604160045260246000fd5b610a31826109e8565b810181811067ffffffffffffffff82111715610a5057610a4f6109f9565b5b80604052505050565b6000610a636109ca565b9050610a6f8282610a28565b919050565b600067ffffffffffffffff821115610a8f57610a8e6109f9565b5b610a98826109e8565b9050602081019050919050565b82818337600083830152505050565b6000610ac7610ac284610a74565b610a59565b905082815260208101848484011115610ae357610ae26109e3565b5b610aee848285610aa5565b509392505050565b600082601f830112610b0b57610b0a6109de565b5b8135610b1b848260208601610ab4565b91505092915050565b600060208284031215610b3a57610b396109d4565b5b600082013567ffffffffffffffff811115610b5857610b576109d9565b5b610b6484828501610af6565b91505092915050565b600073ffffffffffffffffffffffffffffffffffffffff82169050919050565b6000610b9882610b6d565b9050919050565b610ba881610b8d565b82525050565b6000602082019050610bc36000830184610b9f565b92915050565b60008115159050919050565b610bde81610bc9565b82525050565b6000602082019050610bf96000830184610bd5565b92915050565b610c0881610b8d565b8114610c1357600080fd5b50565b600081359050610c2581610bff565b92915050565b600060208284031215610c4157610c406109d4565b5b6000610c4f84828501610c16565b91505092915050565b60008060408385031215610c6f57610c6e6109d4565b5b600083013567ffffffffffffffff811115610c8d57610c8c6109d9565b5b610c9985828601610af6565b9250506020610caa85828601610c16565b9150509250929050565b600081519050919050565b600081905092915050565b60005b83811015610ce8578082015181840152602081019050610ccd565b60008484015250505050565b6000610cff82610cb4565b610d098185610cbf565b9350610d19818560208601610cca565b80840191505092915050565b6000610d318284610cf4565b915081905092915050565b600082825260208201905092915050565b7f55736572206e6f74206f6e636861696e00000000000000000000000000000000600082015250565b6000610d83601083610d3c565b9150610d8e82610d4d565b602082019050919050565b60006020820190508181036000830152610db281610d76565b9050919050565b7f4e6f7420617574686f72697a656420746f206275726e20746869732062696e6460008201527f696e670000000000000000000000000000000000000000000000000000000000602082015250565b6000610e15602383610d3c565b9150610e2082610db9565b604082019050919050565b60006020820190508181036000830152610e4481610e08565b9050919050565b6000610e5682610cb4565b610e608185610d3c565b9350610e70818560208601610cca565b610e79816109e8565b840191505092915050565b60006020820190508181036000830152610e9e8184610e4b565b905092915050565b7f5a65726f20616464726573730000000000000000000000000000000000000000600082015250565b6000610edc600c83610d3c565b9150610ee782610ea6565b602082019050919050565b60006020820190508181036000830152610f0b81610ecf565b9050919050565b7f556e617574686f72697a65640000000000000000000000000000000000000000600082015250565b6000610f48600c83610d3c565b9150610f5382610f12565b602082019050919050565b60006020820190508181036000830152610f7781610f3b565b9050919050565b7f5573657220616c7265616479206f6e636861696e000000000000000000000000600082015250565b6000610fb4601483610d3c565b9150610fbf82610f7e565b602082019050919050565b60006020820190508181036000830152610fe381610fa7565b905091905056fea26469706673582212203fc5f3493dd7183225c24ddbea12472fc9e664813b210207aa3cc483a1d7c47364736f6c634300081c0033",
  "linkReferences": {},
  "deployedLinkReferences": {}
}